{
  "_format": "hh-sol-artifact-1",
  "contractName": "SecretRecipe",
  "sourceName": "contracts/SecretRecipe.sol",
  "abi": [
    {
      "inputs": [],
      "stateMutability": "nonpayable",
      "type": "constructor"
    },
    {
      "anonymous": false,
      "inputs": [
        {
          "indexed": true,
          "internalType": "address",
          "name": "previousOwner",
          "type": "address"
        },
        {
          "indexed": true,
          "internalType": "address",
          "name": "newOwner",
          "type": "address"
        }
      ],
      "name": "OwnershipTransferred",
      "type": "event"
    },
    {
      "anonymous": false,
      "inputs": [
        {
          "indexed": false,
          "internalType": "uint256",
          "name": "id",
          "type": "uint256"
        }
      ],
      "name": "RecipeEvent",
      "type": "event"
    },
    {
      "inputs": [
        {
          "internalType": "address",
          "name": "_address",
          "type": "address"
        }
      ],
      "name": "addPermitted",
      "outputs": [],
      "stateMutability": "nonpayable",
      "type": "function"
    },
    {
      "inputs": [
        {
          "internalType": "string",
          "name": "_title",
          "type": "string"
        },
        {
          "internalType": "string",
          "name": "_description",
          "type": "string"
        },
        {
          "internalType": "string[]",
          "name": "_ingredients",
          "type": "string[]"
        },
        {
          "internalType": "string[]",
          "name": "_steps",
          "type": "string[]"
        },
        {
          "internalType": "string[]",
          "name": "_images",
          "type": "string[]"
        }
      ],
      "name": "addRecipe",
      "outputs": [],
      "stateMutability": "nonpayable",
      "type": "function"
    },
    {
      "inputs": [
        {
          "internalType": "uint256",
          "name": "_id",
          "type": "uint256"
        }
      ],
      "name": "deleteRecipe",
      "outputs": [],
      "stateMutability": "nonpayable",
      "type": "function"
    },
    {
      "inputs": [
        {
          "internalType": "uint256",
          "name": "_id",
          "type": "uint256"
        },
        {
          "internalType": "string",
          "name": "_title",
          "type": "string"
        },
        {
          "internalType": "string",
          "name": "_description",
          "type": "string"
        },
        {
          "internalType": "string[]",
          "name": "_ingredients",
          "type": "string[]"
        },
        {
          "internalType": "string[]",
          "name": "_steps",
          "type": "string[]"
        },
        {
          "internalType": "string[]",
          "name": "_images",
          "type": "string[]"
        }
      ],
      "name": "editRecipe",
      "outputs": [],
      "stateMutability": "nonpayable",
      "type": "function"
    },
    {
      "inputs": [],
      "name": "getPermitted",
      "outputs": [
        {
          "internalType": "address[]",
          "name": "",
          "type": "address[]"
        }
      ],
      "stateMutability": "view",
      "type": "function"
    },
    {
      "inputs": [],
      "name": "getRecipes",
      "outputs": [
        {
          "components": [
            {
              "internalType": "uint256",
              "name": "id",
              "type": "uint256"
            },
            {
              "internalType": "string",
              "name": "title",
              "type": "string"
            },
            {
              "internalType": "string",
              "name": "description",
              "type": "string"
            },
            {
              "internalType": "string[]",
              "name": "ingredients",
              "type": "string[]"
            },
            {
              "internalType": "string[]",
              "name": "steps",
              "type": "string[]"
            },
            {
              "internalType": "string[]",
              "name": "images",
              "type": "string[]"
            }
          ],
          "internalType": "struct SecretRecipe.Recipe[]",
          "name": "",
          "type": "tuple[]"
        }
      ],
      "stateMutability": "view",
      "type": "function"
    },
    {
      "inputs": [
        {
          "internalType": "uint256",
          "name": "",
          "type": "uint256"
        }
      ],
      "name": "idToRecipe",
      "outputs": [
        {
          "internalType": "uint256",
          "name": "id",
          "type": "uint256"
        },
        {
          "internalType": "string",
          "name": "title",
          "type": "string"
        },
        {
          "internalType": "string",
          "name": "description",
          "type": "string"
        }
      ],
      "stateMutability": "view",
      "type": "function"
    },
    {
      "inputs": [],
      "name": "owner",
      "outputs": [
        {
          "internalType": "address",
          "name": "",
          "type": "address"
        }
      ],
      "stateMutability": "view",
      "type": "function"
    },
    {
      "inputs": [
        {
          "internalType": "address",
          "name": "",
          "type": "address"
        }
      ],
      "name": "permitted",
      "outputs": [
        {
          "internalType": "bool",
          "name": "",
          "type": "bool"
        }
      ],
      "stateMutability": "view",
      "type": "function"
    },
    {
      "inputs": [
        {
          "internalType": "address",
          "name": "_address",
          "type": "address"
        }
      ],
      "name": "removePermitted",
      "outputs": [],
      "stateMutability": "nonpayable",
      "type": "function"
    },
    {
      "inputs": [],
      "name": "renounceOwnership",
      "outputs": [],
      "stateMutability": "nonpayable",
      "type": "function"
    },
    {
      "inputs": [
        {
          "internalType": "address",
          "name": "newOwner",
          "type": "address"
        }
      ],
      "name": "transferOwnership",
      "outputs": [],
      "stateMutability": "nonpayable",
      "type": "function"
    }
  ],
  "bytecode": "0x608060405234801561001057600080fd5b5061001a3361008f565b61002e60026100df60201b610ecf1760201c565b336000818152600460205260408120805460ff191660019081179091556005805491820181559091527f036b6384b5eca791c62761152d0c79bb0604c104a5fb6f4eb0703f3154bb3db00180546001600160a01b03191690911790556100e8565b600080546001600160a01b038381166001600160a01b0319831681178455604051919092169283917f8be0079c531659141344cd1fd0a4f28419497f9722a3daafe3b4186f6b6457e09190a35050565b80546001019055565b6117f3806100f76000396000f3fe608060405234801561001057600080fd5b50600436106100b45760003560e01c8063a368ce3c11610071578063a368ce3c14610155578063aafd338b14610168578063c8a504241461017b578063d853cd581461018e578063d9b3fd5b146101b0578063f2fde38b146101c557600080fd5b80631854063d146100b95780636cc301e3146100d7578063715018a61461010a5780638da5cb5b1461011457806393435d501461012f5780639723751714610142575b600080fd5b6100c16101d8565b6040516100ce9190611548565b60405180910390f35b6100fa6100e53660046112ac565b60046020526000908152604090205460ff1681565b60405190151581526020016100ce565b61011261023a565b005b6000546040516001600160a01b0390911681526020016100ce565b61011261013d3660046112ac565b6102a5565b6101126101503660046113b1565b610449565b6101126101633660046112da565b610511565b6101126101763660046112ac565b61060b565b6101126101893660046113c9565b6106ae565b6101a161019c3660046113b1565b6107c6565b6040516100ce939291906116a6565b6101b86108f9565b6040516100ce9190611595565b6101126101d33660046112ac565b610e04565b6060600580548060200260200160405190810160405280929190818152602001828054801561023057602002820191906000526020600020905b81546001600160a01b03168152600190910190602001808311610212575b5050505050905090565b6000546001600160a01b031633146102995760405162461bcd60e51b815260206004820181905260248201527f4f776e61626c653a2063616c6c6572206973206e6f7420746865206f776e657260448201526064015b60405180910390fd5b6102a36000610ed8565b565b3360009081526004602052604090205460ff166102d45760405162461bcd60e51b815260040161029090611676565b60006102df60025490565b6001600160a01b0383166000908152600460205260408120805460ff191690559091505b8181101561044457826001600160a01b03166005828154811061033657634e487b7160e01b600052603260045260246000fd5b6000918252602090912001546001600160a01b03161415610432576005805461036190600190611724565b8154811061037f57634e487b7160e01b600052603260045260246000fd5b600091825260209091200154600580546001600160a01b0390921691839081106103b957634e487b7160e01b600052603260045260246000fd5b9060005260206000200160006101000a8154816001600160a01b0302191690836001600160a01b03160217905550600580548061040657634e487b7160e01b600052603160045260246000fd5b600082815260209020810160001990810180546001600160a01b03191690550190556104326002610f28565b8061043c81611776565b915050610303565b505050565b3360009081526004602052604090205460ff166104785760405162461bcd60e51b815260040161029090611676565b6104826001610f28565b6000818152600360205260408120818155906104a16001830182610f7f565b6104af600283016000610f7f565b6104bd600383016000610fb9565b6104cb600483016000610fb9565b6104d9600583016000610fb9565b50506040518181527f9936ffe31c43b721bdbd1d10ca26d8d350d27056e77fd9ff539d84b4bda250059060200160405180910390a150565b3360009081526004602052604090205460ff166105405760405162461bcd60e51b815260040161029090611676565b61054e600180546001019055565b600061055960015490565b600081815260036020526040902081815590915061057b600182018a8a610fd7565b5061058a600282018888610fd7565b5084516105a0906003830190602088019061105b565b5083516105b6906004830190602087019061105b565b5082516105cc906005830190602086019061105b565b506040518281527f9936ffe31c43b721bdbd1d10ca26d8d350d27056e77fd9ff539d84b4bda250059060200160405180910390a1505050505050505050565b3360009081526004602052604090205460ff1661063a5760405162461bcd60e51b815260040161029090611676565b610648600280546001019055565b6001600160a01b03166000818152600460205260408120805460ff191660019081179091556005805491820181559091527f036b6384b5eca791c62761152d0c79bb0604c104a5fb6f4eb0703f3154bb3db00180546001600160a01b0319169091179055565b3360009081526004602052604090205460ff166106dd5760405162461bcd60e51b815260040161029090611676565b60008881526003602052604090206106f9906001018888610fd7565b506000888152600360205260409020610716906002018686610fd7565b506000888152600360208181526040909220855161073c9391909201919086019061105b565b50600088815260036020908152604090912083516107629260049092019185019061105b565b50600088815260036020908152604090912082516107889260059092019184019061105b565b506040518881527f9936ffe31c43b721bdbd1d10ca26d8d350d27056e77fd9ff539d84b4bda250059060200160405180910390a15050505050505050565b600360205260009081526040902080546001820180549192916107e89061173b565b80601f01602080910402602001604051908101604052809291908181526020018280546108149061173b565b80156108615780601f1061083657610100808354040283529160200191610861565b820191906000526020600020905b81548152906001019060200180831161084457829003601f168201915b5050505050908060020180546108769061173b565b80601f01602080910402602001604051908101604052809291908181526020018280546108a29061173b565b80156108ef5780601f106108c4576101008083540402835291602001916108ef565b820191906000526020600020905b8154815290600101906020018083116108d257829003601f168201915b5050505050905083565b3360009081526004602052604090205460609060ff1661092b5760405162461bcd60e51b815260040161029090611676565b600061093660015490565b905060008167ffffffffffffffff81111561096157634e487b7160e01b600052604160045260246000fd5b6040519080825280602002602001820160405280156109cb57816020015b6109b86040518060c001604052806000815260200160608152602001606081526020016060815260200160608152602001606081525090565b81526020019060019003908161097f5790505b50905060005b82811015610dfd5760006003816109e984600161170c565b81526020019081526020016000209050806040518060c001604052908160008201548152602001600182018054610a1f9061173b565b80601f0160208091040260200160405190810160405280929190818152602001828054610a4b9061173b565b8015610a985780601f10610a6d57610100808354040283529160200191610a98565b820191906000526020600020905b815481529060010190602001808311610a7b57829003601f168201915b50505050508152602001600282018054610ab19061173b565b80601f0160208091040260200160405190810160405280929190818152602001828054610add9061173b565b8015610b2a5780601f10610aff57610100808354040283529160200191610b2a565b820191906000526020600020905b815481529060010190602001808311610b0d57829003601f168201915b5050505050815260200160038201805480602002602001604051908101604052809291908181526020016000905b82821015610c04578382906000526020600020018054610b779061173b565b80601f0160208091040260200160405190810160405280929190818152602001828054610ba39061173b565b8015610bf05780601f10610bc557610100808354040283529160200191610bf0565b820191906000526020600020905b815481529060010190602001808311610bd357829003601f168201915b505050505081526020019060010190610b58565b50505050815260200160048201805480602002602001604051908101604052809291908181526020016000905b82821015610cdd578382906000526020600020018054610c509061173b565b80601f0160208091040260200160405190810160405280929190818152602001828054610c7c9061173b565b8015610cc95780601f10610c9e57610100808354040283529160200191610cc9565b820191906000526020600020905b815481529060010190602001808311610cac57829003601f168201915b505050505081526020019060010190610c31565b50505050815260200160058201805480602002602001604051908101604052809291908181526020016000905b82821015610db6578382906000526020600020018054610d299061173b565b80601f0160208091040260200160405190810160405280929190818152602001828054610d559061173b565b8015610da25780601f10610d7757610100808354040283529160200191610da2565b820191906000526020600020905b815481529060010190602001808311610d8557829003601f168201915b505050505081526020019060010190610d0a565b5050505081525050838381518110610dde57634e487b7160e01b600052603260045260246000fd5b6020026020010181905250508080610df590611776565b9150506109d1565b5091505090565b6000546001600160a01b03163314610e5e5760405162461bcd60e51b815260206004820181905260248201527f4f776e61626c653a2063616c6c6572206973206e6f7420746865206f776e65726044820152606401610290565b6001600160a01b038116610ec35760405162461bcd60e51b815260206004820152602660248201527f4f776e61626c653a206e6577206f776e657220697320746865207a65726f206160448201526564647265737360d01b6064820152608401610290565b610ecc81610ed8565b50565b80546001019055565b600080546001600160a01b038381166001600160a01b0319831681178455604051919092169283917f8be0079c531659141344cd1fd0a4f28419497f9722a3daafe3b4186f6b6457e09190a35050565b805480610f775760405162461bcd60e51b815260206004820152601b60248201527f436f756e7465723a2064656372656d656e74206f766572666c6f7700000000006044820152606401610290565b600019019055565b508054610f8b9061173b565b6000825580601f10610f9b575050565b601f016020900490600052602060002090810190610ecc91906110b4565b5080546000825590600052602060002090810190610ecc91906110c9565b828054610fe39061173b565b90600052602060002090601f016020900481019282611005576000855561104b565b82601f1061101e5782800160ff1982351617855561104b565b8280016001018555821561104b579182015b8281111561104b578235825591602001919060010190611030565b506110579291506110b4565b5090565b8280548282559060005260206000209081019282156110a8579160200282015b828111156110a857825180516110989184916020909101906110e6565b509160200191906001019061107b565b506110579291506110c9565b5b8082111561105757600081556001016110b5565b808211156110575760006110dd8282610f7f565b506001016110c9565b8280546110f29061173b565b90600052602060002090601f016020900481019282611114576000855561104b565b82601f1061112d57805160ff191683800117855561104b565b8280016001018555821561104b579182015b8281111561104b57825182559160200191906001019061113f565b600082601f83011261116a578081fd5b8135602067ffffffffffffffff80831115611187576111876117a7565b8260051b6111968382016116db565b8481528381019087850183890186018a10156111b0578788fd5b8793505b868410156111ed578035858111156111ca578889fd5b6111d88b88838d0101611241565b845250600193909301929185019185016111b4565b5098975050505050505050565b60008083601f84011261120b578182fd5b50813567ffffffffffffffff811115611222578182fd5b60208301915083602082850101111561123a57600080fd5b9250929050565b600082601f830112611251578081fd5b813567ffffffffffffffff81111561126b5761126b6117a7565b61127e601f8201601f19166020016116db565b818152846020838601011115611292578283fd5b816020850160208301379081016020019190915292915050565b6000602082840312156112bd578081fd5b81356001600160a01b03811681146112d3578182fd5b9392505050565b600080600080600080600060a0888a0312156112f4578283fd5b873567ffffffffffffffff8082111561130b578485fd5b6113178b838c016111fa565b909950975060208a013591508082111561132f578485fd5b61133b8b838c016111fa565b909750955060408a0135915080821115611353578485fd5b61135f8b838c0161115a565b945060608a0135915080821115611374578384fd5b6113808b838c0161115a565b935060808a0135915080821115611395578283fd5b506113a28a828b0161115a565b91505092959891949750929550565b6000602082840312156113c2578081fd5b5035919050565b60008060008060008060008060c0898b0312156113e4578081fd5b88359750602089013567ffffffffffffffff80821115611402578283fd5b61140e8c838d016111fa565b909950975060408b0135915080821115611426578283fd5b6114328c838d016111fa565b909750955060608b013591508082111561144a578283fd5b6114568c838d0161115a565b945060808b013591508082111561146b578283fd5b6114778c838d0161115a565b935060a08b013591508082111561148c578283fd5b506114998b828c0161115a565b9150509295985092959890939650565b600081518084526020808501808196508360051b81019150828601855b858110156114f05782840389526114de8483516114fd565b988501989350908401906001016114c6565b5091979650505050505050565b60008151808452815b8181101561152257602081850181015186830182015201611506565b818111156115335782602083870101525b50601f01601f19169290920160200192915050565b6020808252825182820181905260009190848201906040850190845b818110156115895783516001600160a01b031683529284019291840191600101611564565b50909695505050505050565b60006020808301818452808551808352604092508286019150828160051b870101848801865b8381101561166857603f19898403018552815160c08151855288820151818a8701526115e9828701826114fd565b915050878201518582038987015261160182826114fd565b9150506060808301518683038288015261161b83826114a9565b925050506080808301518683038288015261163683826114a9565b9250505060a0808301519250858203818701525061165481836114a9565b9689019694505050908601906001016115bb565b509098975050505050505050565b60208082526016908201527514195c9b5a5cdcda5bdb881b9bdd0819dc985b9d195960521b604082015260600190565b8381526060602082015260006116bf60608301856114fd565b82810360408401526116d181856114fd565b9695505050505050565b604051601f8201601f1916810167ffffffffffffffff81118282101715611704576117046117a7565b604052919050565b6000821982111561171f5761171f611791565b500190565b60008282101561173657611736611791565b500390565b600181811c9082168061174f57607f821691505b6020821081141561177057634e487b7160e01b600052602260045260246000fd5b50919050565b600060001982141561178a5761178a611791565b5060010190565b634e487b7160e01b600052601160045260246000fd5b634e487b7160e01b600052604160045260246000fdfea2646970667358221220fc8ff58f80f51b2c8e4fa5812e5c69705d861407fb0ba2736990dbe41d844a3664736f6c63430008040033",
  "linkReferences": {},
  "deployedLinkReferences": {}
}