{
  "_format": "hh-sol-artifact-1",
  "contractName": "SecretRecipe",
  "sourceName": "contracts/SecretRecipe.sol",
  "abi": [
    {
      "inputs": [],
      "stateMutability": "nonpayable",
      "type": "constructor"
    },
    {
      "anonymous": false,
      "inputs": [
        {
          "indexed": true,
          "internalType": "address",
          "name": "previousOwner",
          "type": "address"
        },
        {
          "indexed": true,
          "internalType": "address",
          "name": "newOwner",
          "type": "address"
        }
      ],
      "name": "OwnershipTransferred",
      "type": "event"
    },
    {
      "anonymous": false,
      "inputs": [
        {
          "indexed": false,
          "internalType": "uint256",
          "name": "id",
          "type": "uint256"
        }
      ],
      "name": "RecipeEvent",
      "type": "event"
    },
    {
      "inputs": [
        {
          "internalType": "address",
          "name": "_address",
          "type": "address"
        }
      ],
      "name": "addPermitted",
      "outputs": [],
      "stateMutability": "nonpayable",
      "type": "function"
    },
    {
      "inputs": [
        {
          "internalType": "string",
          "name": "_title",
          "type": "string"
        },
        {
          "internalType": "string",
          "name": "_description",
          "type": "string"
        },
        {
          "internalType": "string[]",
          "name": "_ingredients",
          "type": "string[]"
        },
        {
          "internalType": "string[]",
          "name": "_steps",
          "type": "string[]"
        },
        {
          "internalType": "string[]",
          "name": "_images",
          "type": "string[]"
        }
      ],
      "name": "addRecipe",
      "outputs": [],
      "stateMutability": "nonpayable",
      "type": "function"
    },
    {
      "inputs": [
        {
          "internalType": "uint256",
          "name": "_id",
          "type": "uint256"
        }
      ],
      "name": "deleteRecipe",
      "outputs": [],
      "stateMutability": "nonpayable",
      "type": "function"
    },
    {
      "inputs": [
        {
          "internalType": "uint256",
          "name": "_id",
          "type": "uint256"
        },
        {
          "internalType": "string",
          "name": "_title",
          "type": "string"
        },
        {
          "internalType": "string",
          "name": "_description",
          "type": "string"
        },
        {
          "internalType": "string[]",
          "name": "_ingredients",
          "type": "string[]"
        },
        {
          "internalType": "string[]",
          "name": "_steps",
          "type": "string[]"
        },
        {
          "internalType": "string[]",
          "name": "_images",
          "type": "string[]"
        }
      ],
      "name": "editRecipe",
      "outputs": [],
      "stateMutability": "nonpayable",
      "type": "function"
    },
    {
      "inputs": [],
      "name": "getPermitted",
      "outputs": [
        {
          "internalType": "address[]",
          "name": "",
          "type": "address[]"
        }
      ],
      "stateMutability": "view",
      "type": "function"
    },
    {
      "inputs": [],
      "name": "getRecipes",
      "outputs": [
        {
          "components": [
            {
              "internalType": "uint256",
              "name": "id",
              "type": "uint256"
            },
            {
              "internalType": "string",
              "name": "title",
              "type": "string"
            },
            {
              "internalType": "string",
              "name": "description",
              "type": "string"
            },
            {
              "internalType": "string[]",
              "name": "ingredients",
              "type": "string[]"
            },
            {
              "internalType": "string[]",
              "name": "steps",
              "type": "string[]"
            },
            {
              "internalType": "string[]",
              "name": "images",
              "type": "string[]"
            }
          ],
          "internalType": "struct SecretRecipe.Recipe[]",
          "name": "",
          "type": "tuple[]"
        }
      ],
      "stateMutability": "view",
      "type": "function"
    },
    {
      "inputs": [
        {
          "internalType": "uint256",
          "name": "",
          "type": "uint256"
        }
      ],
      "name": "idToRecipe",
      "outputs": [
        {
          "internalType": "uint256",
          "name": "id",
          "type": "uint256"
        },
        {
          "internalType": "string",
          "name": "title",
          "type": "string"
        },
        {
          "internalType": "string",
          "name": "description",
          "type": "string"
        }
      ],
      "stateMutability": "view",
      "type": "function"
    },
    {
      "inputs": [],
      "name": "owner",
      "outputs": [
        {
          "internalType": "address",
          "name": "",
          "type": "address"
        }
      ],
      "stateMutability": "view",
      "type": "function"
    },
    {
      "inputs": [
        {
          "internalType": "address",
          "name": "",
          "type": "address"
        }
      ],
      "name": "permitted",
      "outputs": [
        {
          "internalType": "bool",
          "name": "",
          "type": "bool"
        }
      ],
      "stateMutability": "view",
      "type": "function"
    },
    {
      "inputs": [
        {
          "internalType": "address",
          "name": "_address",
          "type": "address"
        }
      ],
      "name": "removePermitted",
      "outputs": [],
      "stateMutability": "nonpayable",
      "type": "function"
    },
    {
      "inputs": [],
      "name": "renounceOwnership",
      "outputs": [],
      "stateMutability": "nonpayable",
      "type": "function"
    },
    {
      "inputs": [
        {
          "internalType": "address",
          "name": "newOwner",
          "type": "address"
        }
      ],
      "name": "transferOwnership",
      "outputs": [],
      "stateMutability": "nonpayable",
      "type": "function"
    }
  ],
  "bytecode": "0x608060405234801561001057600080fd5b5061001a3361008f565b61002e60026100df60201b610ecc1760201c565b336000818152600460205260408120805460ff191660019081179091556005805491820181559091527f036b6384b5eca791c62761152d0c79bb0604c104a5fb6f4eb0703f3154bb3db00180546001600160a01b03191690911790556100e8565b600080546001600160a01b038381166001600160a01b0319831681178455604051919092169283917f8be0079c531659141344cd1fd0a4f28419497f9722a3daafe3b4186f6b6457e09190a35050565b80546001019055565b6117f0806100f76000396000f3fe608060405234801561001057600080fd5b50600436106100b45760003560e01c8063a368ce3c11610071578063a368ce3c14610155578063aafd338b14610168578063c8a504241461017b578063d853cd581461018e578063d9b3fd5b146101b0578063f2fde38b146101c557600080fd5b80631854063d146100b95780636cc301e3146100d7578063715018a61461010a5780638da5cb5b1461011457806393435d501461012f5780639723751714610142575b600080fd5b6100c16101d8565b6040516100ce9190611545565b60405180910390f35b6100fa6100e53660046112a9565b60046020526000908152604090205460ff1681565b60405190151581526020016100ce565b61011261023a565b005b6000546040516001600160a01b0390911681526020016100ce565b61011261013d3660046112a9565b6102a5565b6101126101503660046113ae565b610449565b6101126101633660046112d7565b610511565b6101126101763660046112a9565b610608565b6101126101893660046113c6565b6106ab565b6101a161019c3660046113ae565b6107c3565b6040516100ce939291906116a3565b6101b86108f6565b6040516100ce9190611592565b6101126101d33660046112a9565b610e01565b6060600580548060200260200160405190810160405280929190818152602001828054801561023057602002820191906000526020600020905b81546001600160a01b03168152600190910190602001808311610212575b5050505050905090565b6000546001600160a01b031633146102995760405162461bcd60e51b815260206004820181905260248201527f4f776e61626c653a2063616c6c6572206973206e6f7420746865206f776e657260448201526064015b60405180910390fd5b6102a36000610ed5565b565b3360009081526004602052604090205460ff166102d45760405162461bcd60e51b815260040161029090611673565b60006102df60025490565b6001600160a01b0383166000908152600460205260408120805460ff191690559091505b8181101561044457826001600160a01b03166005828154811061033657634e487b7160e01b600052603260045260246000fd5b6000918252602090912001546001600160a01b03161415610432576005805461036190600190611721565b8154811061037f57634e487b7160e01b600052603260045260246000fd5b600091825260209091200154600580546001600160a01b0390921691839081106103b957634e487b7160e01b600052603260045260246000fd5b9060005260206000200160006101000a8154816001600160a01b0302191690836001600160a01b03160217905550600580548061040657634e487b7160e01b600052603160045260246000fd5b600082815260209020810160001990810180546001600160a01b03191690550190556104326002610f25565b8061043c81611773565b915050610303565b505050565b3360009081526004602052604090205460ff166104785760405162461bcd60e51b815260040161029090611673565b6104826001610f25565b6000818152600360205260408120818155906104a16001830182610f7c565b6104af600283016000610f7c565b6104bd600383016000610fb6565b6104cb600483016000610fb6565b6104d9600583016000610fb6565b50506040518181527f9936ffe31c43b721bdbd1d10ca26d8d350d27056e77fd9ff539d84b4bda250059060200160405180910390a150565b3360009081526004602052604090205460ff166105405760405162461bcd60e51b815260040161029090611673565b61054e600180546001019055565b600061055960015490565b6000818152600360205260409020909150610578600182018a8a610fd4565b50610587600282018888610fd4565b50845161059d9060038301906020880190611058565b5083516105b39060048301906020870190611058565b5082516105c99060058301906020860190611058565b506040518281527f9936ffe31c43b721bdbd1d10ca26d8d350d27056e77fd9ff539d84b4bda250059060200160405180910390a1505050505050505050565b3360009081526004602052604090205460ff166106375760405162461bcd60e51b815260040161029090611673565b610645600280546001019055565b6001600160a01b03166000818152600460205260408120805460ff191660019081179091556005805491820181559091527f036b6384b5eca791c62761152d0c79bb0604c104a5fb6f4eb0703f3154bb3db00180546001600160a01b0319169091179055565b3360009081526004602052604090205460ff166106da5760405162461bcd60e51b815260040161029090611673565b60008881526003602052604090206106f6906001018888610fd4565b506000888152600360205260409020610713906002018686610fd4565b506000888152600360208181526040909220855161073993919092019190860190611058565b506000888152600360209081526040909120835161075f92600490920191850190611058565b506000888152600360209081526040909120825161078592600590920191840190611058565b506040518881527f9936ffe31c43b721bdbd1d10ca26d8d350d27056e77fd9ff539d84b4bda250059060200160405180910390a15050505050505050565b600360205260009081526040902080546001820180549192916107e590611738565b80601f016020809104026020016040519081016040528092919081815260200182805461081190611738565b801561085e5780601f106108335761010080835404028352916020019161085e565b820191906000526020600020905b81548152906001019060200180831161084157829003601f168201915b50505050509080600201805461087390611738565b80601f016020809104026020016040519081016040528092919081815260200182805461089f90611738565b80156108ec5780601f106108c1576101008083540402835291602001916108ec565b820191906000526020600020905b8154815290600101906020018083116108cf57829003601f168201915b5050505050905083565b3360009081526004602052604090205460609060ff166109285760405162461bcd60e51b815260040161029090611673565b600061093360015490565b905060008167ffffffffffffffff81111561095e57634e487b7160e01b600052604160045260246000fd5b6040519080825280602002602001820160405280156109c857816020015b6109b56040518060c001604052806000815260200160608152602001606081526020016060815260200160608152602001606081525090565b81526020019060019003908161097c5790505b50905060005b82811015610dfa5760006003816109e6846001611709565b81526020019081526020016000209050806040518060c001604052908160008201548152602001600182018054610a1c90611738565b80601f0160208091040260200160405190810160405280929190818152602001828054610a4890611738565b8015610a955780601f10610a6a57610100808354040283529160200191610a95565b820191906000526020600020905b815481529060010190602001808311610a7857829003601f168201915b50505050508152602001600282018054610aae90611738565b80601f0160208091040260200160405190810160405280929190818152602001828054610ada90611738565b8015610b275780601f10610afc57610100808354040283529160200191610b27565b820191906000526020600020905b815481529060010190602001808311610b0a57829003601f168201915b5050505050815260200160038201805480602002602001604051908101604052809291908181526020016000905b82821015610c01578382906000526020600020018054610b7490611738565b80601f0160208091040260200160405190810160405280929190818152602001828054610ba090611738565b8015610bed5780601f10610bc257610100808354040283529160200191610bed565b820191906000526020600020905b815481529060010190602001808311610bd057829003601f168201915b505050505081526020019060010190610b55565b50505050815260200160048201805480602002602001604051908101604052809291908181526020016000905b82821015610cda578382906000526020600020018054610c4d90611738565b80601f0160208091040260200160405190810160405280929190818152602001828054610c7990611738565b8015610cc65780601f10610c9b57610100808354040283529160200191610cc6565b820191906000526020600020905b815481529060010190602001808311610ca957829003601f168201915b505050505081526020019060010190610c2e565b50505050815260200160058201805480602002602001604051908101604052809291908181526020016000905b82821015610db3578382906000526020600020018054610d2690611738565b80601f0160208091040260200160405190810160405280929190818152602001828054610d5290611738565b8015610d9f5780601f10610d7457610100808354040283529160200191610d9f565b820191906000526020600020905b815481529060010190602001808311610d8257829003601f168201915b505050505081526020019060010190610d07565b5050505081525050838381518110610ddb57634e487b7160e01b600052603260045260246000fd5b6020026020010181905250508080610df290611773565b9150506109ce565b5091505090565b6000546001600160a01b03163314610e5b5760405162461bcd60e51b815260206004820181905260248201527f4f776e61626c653a2063616c6c6572206973206e6f7420746865206f776e65726044820152606401610290565b6001600160a01b038116610ec05760405162461bcd60e51b815260206004820152602660248201527f4f776e61626c653a206e6577206f776e657220697320746865207a65726f206160448201526564647265737360d01b6064820152608401610290565b610ec981610ed5565b50565b80546001019055565b600080546001600160a01b038381166001600160a01b0319831681178455604051919092169283917f8be0079c531659141344cd1fd0a4f28419497f9722a3daafe3b4186f6b6457e09190a35050565b805480610f745760405162461bcd60e51b815260206004820152601b60248201527f436f756e7465723a2064656372656d656e74206f766572666c6f7700000000006044820152606401610290565b600019019055565b508054610f8890611738565b6000825580601f10610f98575050565b601f016020900490600052602060002090810190610ec991906110b1565b5080546000825590600052602060002090810190610ec991906110c6565b828054610fe090611738565b90600052602060002090601f0160209004810192826110025760008555611048565b82601f1061101b5782800160ff19823516178555611048565b82800160010185558215611048579182015b8281111561104857823582559160200191906001019061102d565b506110549291506110b1565b5090565b8280548282559060005260206000209081019282156110a5579160200282015b828111156110a557825180516110959184916020909101906110e3565b5091602001919060010190611078565b506110549291506110c6565b5b8082111561105457600081556001016110b2565b808211156110545760006110da8282610f7c565b506001016110c6565b8280546110ef90611738565b90600052602060002090601f0160209004810192826111115760008555611048565b82601f1061112a57805160ff1916838001178555611048565b82800160010185558215611048579182015b8281111561104857825182559160200191906001019061113c565b600082601f830112611167578081fd5b8135602067ffffffffffffffff80831115611184576111846117a4565b8260051b6111938382016116d8565b8481528381019087850183890186018a10156111ad578788fd5b8793505b868410156111ea578035858111156111c7578889fd5b6111d58b88838d010161123e565b845250600193909301929185019185016111b1565b5098975050505050505050565b60008083601f840112611208578182fd5b50813567ffffffffffffffff81111561121f578182fd5b60208301915083602082850101111561123757600080fd5b9250929050565b600082601f83011261124e578081fd5b813567ffffffffffffffff811115611268576112686117a4565b61127b601f8201601f19166020016116d8565b81815284602083860101111561128f578283fd5b816020850160208301379081016020019190915292915050565b6000602082840312156112ba578081fd5b81356001600160a01b03811681146112d0578182fd5b9392505050565b600080600080600080600060a0888a0312156112f1578283fd5b873567ffffffffffffffff80821115611308578485fd5b6113148b838c016111f7565b909950975060208a013591508082111561132c578485fd5b6113388b838c016111f7565b909750955060408a0135915080821115611350578485fd5b61135c8b838c01611157565b945060608a0135915080821115611371578384fd5b61137d8b838c01611157565b935060808a0135915080821115611392578283fd5b5061139f8a828b01611157565b91505092959891949750929550565b6000602082840312156113bf578081fd5b5035919050565b60008060008060008060008060c0898b0312156113e1578081fd5b88359750602089013567ffffffffffffffff808211156113ff578283fd5b61140b8c838d016111f7565b909950975060408b0135915080821115611423578283fd5b61142f8c838d016111f7565b909750955060608b0135915080821115611447578283fd5b6114538c838d01611157565b945060808b0135915080821115611468578283fd5b6114748c838d01611157565b935060a08b0135915080821115611489578283fd5b506114968b828c01611157565b9150509295985092959890939650565b600081518084526020808501808196508360051b81019150828601855b858110156114ed5782840389526114db8483516114fa565b988501989350908401906001016114c3565b5091979650505050505050565b60008151808452815b8181101561151f57602081850181015186830182015201611503565b818111156115305782602083870101525b50601f01601f19169290920160200192915050565b6020808252825182820181905260009190848201906040850190845b818110156115865783516001600160a01b031683529284019291840191600101611561565b50909695505050505050565b60006020808301818452808551808352604092508286019150828160051b870101848801865b8381101561166557603f19898403018552815160c08151855288820151818a8701526115e6828701826114fa565b91505087820151858203898701526115fe82826114fa565b9150506060808301518683038288015261161883826114a6565b925050506080808301518683038288015261163383826114a6565b9250505060a0808301519250858203818701525061165181836114a6565b9689019694505050908601906001016115b8565b509098975050505050505050565b60208082526016908201527514195c9b5a5cdcda5bdb881b9bdd0819dc985b9d195960521b604082015260600190565b8381526060602082015260006116bc60608301856114fa565b82810360408401526116ce81856114fa565b9695505050505050565b604051601f8201601f1916810167ffffffffffffffff81118282101715611701576117016117a4565b604052919050565b6000821982111561171c5761171c61178e565b500190565b6000828210156117335761173361178e565b500390565b600181811c9082168061174c57607f821691505b6020821081141561176d57634e487b7160e01b600052602260045260246000fd5b50919050565b60006000198214156117875761178761178e565b5060010190565b634e487b7160e01b600052601160045260246000fd5b634e487b7160e01b600052604160045260246000fdfea26469706673582212203391bac4ea0fb069d8524970be40649f8aac36fd80312537362d6bceff07a26b64736f6c63430008040033",
  "linkReferences": {},
  "deployedLinkReferences": {}
}